{
  "contractName": "LiquidityManagement",
  "abi": [
    {
      "anonymous": false,
      "inputs": [
        {
          "indexed": false,
          "internalType": "address",
          "name": "borrower",
          "type": "address"
        },
        {
          "indexed": false,
          "internalType": "address",
          "name": "liquidator",
          "type": "address"
        },
        {
          "indexed": false,
          "internalType": "address",
          "name": "assetSeized",
          "type": "address"
        },
        {
          "indexed": false,
          "internalType": "uint256",
          "name": "amountSeized",
          "type": "uint256"
        }
      ],
      "name": "AccountLiquidated",
      "type": "event"
    },
    {
      "anonymous": false,
      "inputs": [
        {
          "indexed": false,
          "internalType": "address",
          "name": "token",
          "type": "address"
        },
        {
          "indexed": false,
          "internalType": "uint256",
          "name": "amount",
          "type": "uint256"
        }
      ],
      "name": "AmountDeposited",
      "type": "event"
    },
    {
      "anonymous": false,
      "inputs": [
        {
          "indexed": false,
          "internalType": "address",
          "name": "borrower",
          "type": "address"
        },
        {
          "indexed": false,
          "internalType": "address",
          "name": "payer",
          "type": "address"
        },
        {
          "indexed": false,
          "internalType": "uint256",
          "name": "amount",
          "type": "uint256"
        }
      ],
      "name": "AmountRepaid",
      "type": "event"
    },
    {
      "anonymous": false,
      "inputs": [
        {
          "indexed": false,
          "internalType": "address",
          "name": "token",
          "type": "address"
        },
        {
          "indexed": false,
          "internalType": "uint256",
          "name": "amount",
          "type": "uint256"
        }
      ],
      "name": "AmountWithdrawn",
      "type": "event"
    },
    {
      "anonymous": false,
      "inputs": [
        {
          "indexed": true,
          "internalType": "address",
          "name": "previousOwner",
          "type": "address"
        },
        {
          "indexed": true,
          "internalType": "address",
          "name": "newOwner",
          "type": "address"
        }
      ],
      "name": "OwnershipTransferred",
      "type": "event"
    },
    {
      "constant": true,
      "inputs": [
        {
          "internalType": "address",
          "name": "",
          "type": "address"
        },
        {
          "internalType": "address",
          "name": "",
          "type": "address"
        }
      ],
      "name": "balance",
      "outputs": [
        {
          "internalType": "uint256",
          "name": "",
          "type": "uint256"
        }
      ],
      "payable": false,
      "stateMutability": "view",
      "type": "function"
    },
    {
      "constant": true,
      "inputs": [],
      "name": "comptrollerAddress",
      "outputs": [
        {
          "internalType": "address",
          "name": "",
          "type": "address"
        }
      ],
      "payable": false,
      "stateMutability": "view",
      "type": "function"
    },
    {
      "constant": true,
      "inputs": [],
      "name": "isOwner",
      "outputs": [
        {
          "internalType": "bool",
          "name": "",
          "type": "bool"
        }
      ],
      "payable": false,
      "stateMutability": "view",
      "type": "function"
    },
    {
      "constant": true,
      "inputs": [],
      "name": "owner",
      "outputs": [
        {
          "internalType": "address",
          "name": "",
          "type": "address"
        }
      ],
      "payable": false,
      "stateMutability": "view",
      "type": "function"
    },
    {
      "constant": false,
      "inputs": [],
      "name": "renounceOwnership",
      "outputs": [],
      "payable": false,
      "stateMutability": "nonpayable",
      "type": "function"
    },
    {
      "constant": false,
      "inputs": [
        {
          "internalType": "address",
          "name": "newOwner",
          "type": "address"
        }
      ],
      "name": "transferOwnership",
      "outputs": [],
      "payable": false,
      "stateMutability": "nonpayable",
      "type": "function"
    },
    {
      "constant": false,
      "inputs": [
        {
          "internalType": "address",
          "name": "_comptrollerAddress",
          "type": "address"
        }
      ],
      "name": "updateComptrollerAddress",
      "outputs": [],
      "payable": false,
      "stateMutability": "nonpayable",
      "type": "function"
    },
    {
      "constant": false,
      "inputs": [
        {
          "internalType": "address",
          "name": "token",
          "type": "address"
        },
        {
          "internalType": "uint256",
          "name": "amount",
          "type": "uint256"
        }
      ],
      "name": "deposit",
      "outputs": [],
      "payable": false,
      "stateMutability": "nonpayable",
      "type": "function"
    },
    {
      "constant": false,
      "inputs": [
        {
          "internalType": "address",
          "name": "token",
          "type": "address"
        },
        {
          "internalType": "uint256",
          "name": "amount",
          "type": "uint256"
        }
      ],
      "name": "withdraw",
      "outputs": [],
      "payable": false,
      "stateMutability": "nonpayable",
      "type": "function"
    },
    {
      "constant": false,
      "inputs": [
        {
          "internalType": "address",
          "name": "token",
          "type": "address"
        },
        {
          "internalType": "address",
          "name": "cToken",
          "type": "address"
        },
        {
          "internalType": "uint256",
          "name": "amount",
          "type": "uint256"
        }
      ],
      "name": "withdrawCTokens",
      "outputs": [
        {
          "internalType": "uint256",
          "name": "tokensMinted",
          "type": "uint256"
        }
      ],
      "payable": false,
      "stateMutability": "nonpayable",
      "type": "function"
    },
    {
      "constant": true,
      "inputs": [],
      "name": "isLiquidityNegative",
      "outputs": [
        {
          "internalType": "bool",
          "name": "",
          "type": "bool"
        }
      ],
      "payable": false,
      "stateMutability": "view",
      "type": "function"
    },
    {
      "constant": false,
      "inputs": [
        {
          "internalType": "address",
          "name": "borrower",
          "type": "address"
        },
        {
          "internalType": "address",
          "name": "cToken",
          "type": "address"
        },
        {
          "internalType": "uint256",
          "name": "repayAmount",
          "type": "uint256"
        }
      ],
      "name": "repayBorrowedAsset",
      "outputs": [],
      "payable": false,
      "stateMutability": "nonpayable",
      "type": "function"
    },
    {
      "constant": false,
      "inputs": [
        {
          "internalType": "address",
          "name": "borrower",
          "type": "address"
        },
        {
          "internalType": "address",
          "name": "collateral",
          "type": "address"
        },
        {
          "internalType": "address",
          "name": "borrowedAsset",
          "type": "address"
        },
        {
          "internalType": "uint256",
          "name": "amount",
          "type": "uint256"
        }
      ],
      "name": "liquidate",
      "outputs": [
        {
          "internalType": "uint256",
          "name": "collateralSeized",
          "type": "uint256"
        }
      ],
      "payable": false,
      "stateMutability": "nonpayable",
      "type": "function"
    }
  ],
  "bytecode": "0x6080604052600180546001600160a01b031916733d9819210a31b4961b30ef54be2aed79b9c9cd3b179055600061003d6001600160e01b0361008c16565b600080546001600160a01b0319166001600160a01b0383169081178255604051929350917f8be0079c531659141344cd1fd0a4f28419497f9722a3daafe3b4186f6b6457e0908290a350610090565b3390565b6118dc8061009f6000396000f3fe608060405234801561001057600080fd5b50600436106100df5760003560e01c80638f32d59b1161008c578063b60c29ff11610066578063b60c29ff1461023a578063e71d5a9414610242578063f2fde38b14610278578063f3fef3a31461029e576100df565b80638f32d59b146101a2578063aab3f868146101be578063b203bb991461020c576100df565b8063715018a6116100bd578063715018a61461016c57806380efbaa7146101745780638da5cb5b1461019a576100df565b806344267f22146100e457806347e7ef241461011c57806368bde41f14610148575b600080fd5b61011a600480360360608110156100fa57600080fd5b506001600160a01b038135811691602081013590911690604001356102ca565b005b61011a6004803603604081101561013257600080fd5b506001600160a01b038135169060200135610658565b6101506108e1565b604080516001600160a01b039092168252519081900360200190f35b61011a6108f0565b61011a6004803603602081101561018a57600080fd5b50356001600160a01b0316610993565b610150610a6b565b6101aa610a7b565b604080519115158252519081900360200190f35b6101fa600480360360808110156101d457600080fd5b506001600160a01b03813581169160208101358216916040820135169060600135610a9f565b60408051918252519081900360200190f35b6101fa6004803603604081101561022257600080fd5b506001600160a01b0381358116916020013516610eeb565b6101aa610f08565b6101fa6004803603606081101561025857600080fd5b506001600160a01b03813581169160208101359091169060400135610fa1565b61011a6004803603602081101561028e57600080fd5b50356001600160a01b0316611417565b61011a600480360360408110156102b457600080fd5b506001600160a01b03813516906020013561147c565b6000826001600160a01b0316636f307dc36040518163ffffffff1660e01b815260040160206040518083038186803b15801561030557600080fd5b505afa158015610319573d6000803e3d6000fd5b505050506040513d602081101561032f57600080fd5b50513360009081526002602090815260408083206001600160a01b03851684529091529020549091508211156103a3576040805162461bcd60e51b8152602060048201526014602482015273125b9cdd59999a58da595b9d0819195c1bdcda5d60621b604482015290519081900360640190fd5b3360009081526002602090815260408083206001600160a01b03851684529091529020546103d7908363ffffffff6116a316565b3360009081526002602090815260408083206001600160a01b0386811680865291845282852095909555815163095ea7b360e01b81529488166004860152602485018790529051909363095ea7b39360448083019493928390030190829087803b15801561044457600080fd5b505af1158015610458573d6000803e3d6000fd5b505050506040513d602081101561046e57600080fd5b50506001600160a01b03841633141561053b57826001600160a01b0316630e752702836040518263ffffffff1660e01b815260040180828152602001915050602060405180830381600087803b1580156104c757600080fd5b505af11580156104db573d6000803e3d6000fd5b505050506040513d60208110156104f157600080fd5b505115610536576040805162461bcd60e51b815260206004820152600e60248201526d4572726f7220696e20726570617960901b604482015290519081900360640190fd5b61060a565b826001600160a01b0316632608f81885846040518363ffffffff1660e01b815260040180836001600160a01b03166001600160a01b0316815260200182815260200192505050602060405180830381600087803b15801561059b57600080fd5b505af11580156105af573d6000803e3d6000fd5b505050506040513d60208110156105c557600080fd5b50511561060a576040805162461bcd60e51b815260206004820152600e60248201526d4572726f7220696e20726570617960901b604482015290519081900360640190fd5b604080516001600160a01b038616815233602082015280820184905290517f4e194c226dfbd80d8740c9fbb9d245b20c6ee6b0601577053779ce7978b541349181900360600190a150505050565b6001600160a01b0382166106ab576040805162461bcd60e51b8152602060048201526015602482015274496e76616c696420546f6b656e206164647265737360581b604482015290519081900360640190fd5b600081116106f7576040805162461bcd60e51b8152602060048201526014602482015273125b9d985b1a59081d1bdad95b88185b5bdd5b9d60621b604482015290519081900360640190fd5b60408051636eb1769f60e11b815230600482015233602482015290516000916001600160a01b0385169163dd62ed3e91604480820192602092909190829003018186803b15801561074757600080fd5b505afa15801561075b573d6000803e3d6000fd5b505050506040513d602081101561077157600080fd5b50519050818110156107ca576040805162461bcd60e51b815260206004820152601360248201527f546f6b656e73206e6f7420617070726f76656400000000000000000000000000604482015290519081900360640190fd5b3360009081526002602090815260408083206001600160a01b03871684529091529020546107fe908363ffffffff6116ec16565b3360008181526002602090815260408083206001600160a01b0389168085529083528184209590955580516323b872dd60e01b8152600481019490945230602485015260448401879052516323b872dd93606480820194918390030190829087803b15801561086c57600080fd5b505af1158015610880573d6000803e3d6000fd5b505050506040513d602081101561089657600080fd5b5050604080516001600160a01b03851681526020810184905281517faf31a4a3892de0f8039a2ac1ec5c05b946eaea69190ca344c5e239479b3995c9929181900390910190a1505050565b6001546001600160a01b031681565b6108f8610a7b565b610949576040805162461bcd60e51b815260206004820181905260248201527f4f776e61626c653a2063616c6c6572206973206e6f7420746865206f776e6572604482015290519081900360640190fd5b600080546040516001600160a01b03909116907f8be0079c531659141344cd1fd0a4f28419497f9722a3daafe3b4186f6b6457e0908390a3600080546001600160a01b0319169055565b61099b610a7b565b6109ec576040805162461bcd60e51b815260206004820181905260248201527f4f776e61626c653a2063616c6c6572206973206e6f7420746865206f776e6572604482015290519081900360640190fd5b6001546001600160a01b0316610a49576040805162461bcd60e51b815260206004820152601b60248201527f496e76616c696420636f6d7074726f6c6c657220616464726573730000000000604482015290519081900360640190fd5b600180546001600160a01b0319166001600160a01b0392909216919091179055565b6000546001600160a01b03165b90565b600080546001600160a01b0316610a90611746565b6001600160a01b031614905090565b600080836001600160a01b0316636f307dc36040518163ffffffff1660e01b815260040160206040518083038186803b158015610adb57600080fd5b505afa158015610aef573d6000803e3d6000fd5b505050506040513d6020811015610b0557600080fd5b50513360009081526002602090815260408083206001600160a01b0385168452909152902054909150831115610b79576040805162461bcd60e51b8152602060048201526014602482015273125b9cdd59999a58da595b9d0819195c1bdcda5d60621b604482015290519081900360640190fd5b604080516370a0823160e01b815230600482015290516000916001600160a01b038816916370a0823191602480820192602092909190829003018186803b158015610bc357600080fd5b505afa158015610bd7573d6000803e3d6000fd5b505050506040513d6020811015610bed57600080fd5b50513360009081526002602090815260408083206001600160a01b0387168452909152902054909150610c26908563ffffffff6116a316565b3360009081526002602090815260408083206001600160a01b0387811680865291845282852095909555815163095ea7b360e01b8152948a166004860152602485018990529051909363095ea7b39360448083019493928390030190829087803b158015610c9357600080fd5b505af1158015610ca7573d6000803e3d6000fd5b505050506040513d6020811015610cbd57600080fd5b505060408051637af1e23160e11b81526001600160a01b03898116600483015260248201879052888116604483015291519187169163f5e3c462916064808201926020929091908290030181600087803b158015610d1a57600080fd5b505af1158015610d2e573d6000803e3d6000fd5b505050506040513d6020811015610d4457600080fd5b505115610d89576040805162461bcd60e51b815260206004820152600e60248201526d4572726f7220696e20726570617960901b604482015290519081900360640190fd5b604080516370a0823160e01b815230600482015290516000916001600160a01b038916916370a0823191602480820192602092909190829003018186803b158015610dd357600080fd5b505afa158015610de7573d6000803e3d6000fd5b505050506040513d6020811015610dfd57600080fd5b50519050610e11818363ffffffff6116a316565b6040805163a9059cbb60e01b81523360048201526024810183905290519195506001600160a01b0389169163a9059cbb916044808201926020929091908290030181600087803b158015610e6457600080fd5b505af1158015610e78573d6000803e3d6000fd5b505050506040513d6020811015610e8e57600080fd5b5050604080516001600160a01b03808b1682523360208301528916818301526060810186905290517fc1a5f4f837246892a5cff1b2da4b9e2ea64e4c20efa9bf0e64e823c02eb714c69181900360800190a1505050949350505050565b600260209081526000928352604080842090915290825290205481565b60015460408051635ec88c7960e01b8152336004820152905160009283926001600160a01b0390911691635ec88c7991602480820192606092909190829003018186803b158015610f5857600080fd5b505afa158015610f6c573d6000803e3d6000fd5b505050506040513d6060811015610f8257600080fd5b506040015190508015610f99576001915050610a78565b600091505090565b60006001600160a01b038416610ff6576040805162461bcd60e51b8152602060048201526015602482015274496e76616c696420546f6b656e206164647265737360581b604482015290519081900360640190fd5b60008211611042576040805162461bcd60e51b8152602060048201526014602482015273125b9d985b1a59081d1bdad95b88185b5bdd5b9d60621b604482015290519081900360640190fd5b3360009081526002602090815260408083206001600160a01b03881684529091529020548211156110ba576040805162461bcd60e51b815260206004820152601960248201527f496e76616c6964207769746864726177616c20616d6f756e7400000000000000604482015290519081900360640190fd5b3360009081526002602090815260408083206001600160a01b03881684529091529020546110ee908363ffffffff6116a316565b3360009081526002602090815260408083206001600160a01b0389811680865291845282852095909555815163095ea7b360e01b81529488166004860152602485018790529051909363095ea7b39360448083019493928390030190829087803b15801561115b57600080fd5b505af115801561116f573d6000803e3d6000fd5b505050506040513d602081101561118557600080fd5b5050604080516370a0823160e01b815230600482015290516000916001600160a01b038616916370a0823191602480820192602092909190829003018186803b1580156111d157600080fd5b505afa1580156111e5573d6000803e3d6000fd5b505050506040513d60208110156111fb57600080fd5b50516040805163140e25ad60e31b81526004810186905290519192506001600160a01b0386169163a0712d68916024808201926020929091908290030181600087803b15801561124a57600080fd5b505af115801561125e573d6000803e3d6000fd5b505050506040513d602081101561127457600080fd5b5051156112c8576040805162461bcd60e51b815260206004820152601960248201527f4572726f7220696e2072656465656d696e6720746f6b656e7300000000000000604482015290519081900360640190fd5b604080516370a0823160e01b8152306004820152905161134c9183916001600160a01b038816916370a08231916024808301926020929190829003018186803b15801561131457600080fd5b505afa158015611328573d6000803e3d6000fd5b505050506040513d602081101561133e57600080fd5b50519063ffffffff6116a316565b6040805163a9059cbb60e01b81523360048201526024810183905290519193506001600160a01b0386169163a9059cbb916044808201926020929091908290030181600087803b15801561139f57600080fd5b505af11580156113b3573d6000803e3d6000fd5b505050506040513d60208110156113c957600080fd5b5050604080516001600160a01b03861681526020810185905281517f058b581e2433b8b02263f5b0e5c2889fcb7b3495112884a3147619038fba46d8929181900390910190a1509392505050565b61141f610a7b565b611470576040805162461bcd60e51b815260206004820181905260248201527f4f776e61626c653a2063616c6c6572206973206e6f7420746865206f776e6572604482015290519081900360640190fd5b6114798161174a565b50565b6001600160a01b0382166114cf576040805162461bcd60e51b8152602060048201526015602482015274496e76616c696420546f6b656e206164647265737360581b604482015290519081900360640190fd5b6000811161151b576040805162461bcd60e51b8152602060048201526014602482015273125b9d985b1a59081d1bdad95b88185b5bdd5b9d60621b604482015290519081900360640190fd5b3360009081526002602090815260408083206001600160a01b0386168452909152902054811115611593576040805162461bcd60e51b815260206004820152601960248201527f496e76616c6964207769746864726177616c20616d6f756e7400000000000000604482015290519081900360640190fd5b3360009081526002602090815260408083206001600160a01b03861684529091529020546115c7908263ffffffff6116a316565b3360008181526002602090815260408083206001600160a01b03881680855290835281842095909555805163a9059cbb60e01b81526004810194909452602484018690525163a9059cbb93604480820194918390030190829087803b15801561162f57600080fd5b505af1158015611643573d6000803e3d6000fd5b505050506040513d602081101561165957600080fd5b5050604080516001600160a01b03841681526020810183905281517f058b581e2433b8b02263f5b0e5c2889fcb7b3495112884a3147619038fba46d8929181900390910190a15050565b60006116e583836040518060400160405280601e81526020017f536166654d6174683a207375627472616374696f6e206f766572666c6f7700008152506117ea565b9392505050565b6000828201838110156116e5576040805162461bcd60e51b815260206004820152601b60248201527f536166654d6174683a206164646974696f6e206f766572666c6f770000000000604482015290519081900360640190fd5b3390565b6001600160a01b03811661178f5760405162461bcd60e51b81526004018080602001828103825260268152602001806118826026913960400191505060405180910390fd5b600080546040516001600160a01b03808516939216917f8be0079c531659141344cd1fd0a4f28419497f9722a3daafe3b4186f6b6457e091a3600080546001600160a01b0319166001600160a01b0392909216919091179055565b600081848411156118795760405162461bcd60e51b81526004018080602001828103825283818151815260200191508051906020019080838360005b8381101561183e578181015183820152602001611826565b50505050905090810190601f16801561186b5780820380516001836020036101000a031916815260200191505b509250505060405180910390fd5b50505090039056fe4f776e61626c653a206e6577206f776e657220697320746865207a65726f2061646472657373a265627a7a72315820c4735b4fe7743fd0414e972415ac862a75158c345fad854936cb1a4612f8c57064736f6c634300050c0032",
  "source": "pragma solidity 0.5.12;\n\nimport \"@openzeppelin/contracts/utils/Address.sol\";\nimport \"@openzeppelin/contracts/ownership/Ownable.sol\";\nimport \"@openzeppelin/contracts/token/ERC20/IERC20.sol\";\n\nimport \"@openzeppelin/contracts/math/SafeMath.sol\";\nimport \"@openzeppelin/contracts/token/ERC20/SafeERC20.sol\";\n\nimport \"./interfaces/IComptroller.sol\";\nimport \"./interfaces/ICToken.sol\";\n\ncontract LiquidityManagement is Ownable {\n    using SafeERC20 for IERC20;\n    using SafeMath for uint256;\n\n    address public comptrollerAddress = address(\n        0x3d9819210A31b4961b30EF54bE2aeD79B9c9Cd3B\n    );\n\n    mapping(address => mapping(address => uint256)) public balance;\n\n    event AmountDeposited(address token, uint256 amount);\n    event AmountWithdrawn(address token, uint256 amount);\n    event AccountLiquidated(\n        address borrower,\n        address liquidator,\n        address assetSeized,\n        uint256 amountSeized\n    );\n    event AmountRepaid(address borrower, address payer, uint256 amount);\n\n    function updateComptrollerAddress(address _comptrollerAddress)\n        public\n        onlyOwner\n    {\n        require(\n            comptrollerAddress != address(0),\n            \"Invalid comptroller address\"\n        );\n        comptrollerAddress = _comptrollerAddress;\n    }\n\n    function deposit(address token, uint256 amount) public {\n        require(token != address(0), \"Invalid Token address\");\n        require(amount > 0, \"Invalid token amount\");\n\n        uint256 allowance = IERC20(token).allowance(address(this), msg.sender);\n        require(allowance >= amount, \"Tokens not approved\");\n\n        balance[msg.sender][token] = balance[msg.sender][token].add(amount);\n\n        IERC20(token).transferFrom(msg.sender, address(this), amount);\n\n        emit AmountDeposited(token, amount);\n    }\n\n    function withdraw(address token, uint256 amount) public {\n        require(token != address(0), \"Invalid Token address\");\n        require(amount > 0, \"Invalid token amount\");\n\n        require(\n            balance[msg.sender][token] >= amount,\n            \"Invalid withdrawal amount\"\n        );\n\n        balance[msg.sender][token] = balance[msg.sender][token].sub(amount);\n\n        IERC20(token).transfer(msg.sender, amount);\n\n        emit AmountWithdrawn(token, amount);\n    }\n\n    function withdrawCTokens(\n        address token,\n        address cToken,\n        uint256 amount\n    ) public returns (uint256 tokensMinted) {\n        require(token != address(0), \"Invalid Token address\");\n        require(amount > 0, \"Invalid token amount\");\n\n        require(\n            balance[msg.sender][token] >= amount,\n            \"Invalid withdrawal amount\"\n        );\n        balance[msg.sender][token] = balance[msg.sender][token].sub(amount);\n\n        //approve\n        IERC20(token).approve(cToken, amount);\n\n        uint256 initialCTokenBalance = IERC20(cToken).balanceOf(address(this));\n\n        //mint cToken\n        require(ICToken(cToken).mint(amount) == 0, \"Error in redeeming tokens\");\n\n        tokensMinted = IERC20(cToken).balanceOf(address(this)).sub(\n            initialCTokenBalance\n        );\n\n        IERC20(cToken).transfer(msg.sender, tokensMinted);\n\n        emit AmountWithdrawn(cToken, amount);\n    }\n\n    function isLiquidityNegative() public view returns (bool) {\n        (, , uint256 shortfall) = IComptroller(comptrollerAddress)\n            .getAccountLiquidity(msg.sender);\n        if (shortfall > 0) return true;\n\n        return false;\n    }\n\n    //amount in underlying asset terms\n    function repayBorrowedAsset(\n        address borrower,\n        address cToken,\n        uint256 repayAmount\n    ) public {\n        address underlyingToken = ICToken(cToken).underlying();\n        require(\n            balance[msg.sender][underlyingToken] >= repayAmount,\n            \"Insufficient deposit\"\n        );\n\n        balance[msg.sender][underlyingToken] = balance[msg\n            .sender][underlyingToken]\n            .sub(repayAmount);\n\n        //approve\n        IERC20(underlyingToken).approve(cToken, repayAmount);\n\n        //repay\n        if (borrower == msg.sender) {\n            require(\n                ICToken(cToken).repayBorrow(repayAmount) == 0,\n                \"Error in repay\"\n            );\n        } else {\n            require(\n                ICToken(cToken).repayBorrowBehalf(borrower, repayAmount) == 0,\n                \"Error in repay\"\n            );\n        }\n\n        emit AmountRepaid(borrower, msg.sender, repayAmount);\n    }\n\n    //amount in underlying asset terms\n    function liquidate(\n        address borrower,\n        address collateral,\n        address borrowedAsset,\n        uint256 amount\n    ) public returns (uint256 collateralSeized) {\n        address underlyingAsset = ICToken(borrowedAsset).underlying();\n        require(\n            balance[msg.sender][underlyingAsset] >= amount,\n            \"Insufficient deposit\"\n        );\n\n        uint256 collateralInitialbalance = IERC20(collateral).balanceOf(\n            address(this)\n        );\n        balance[msg.sender][underlyingAsset] = balance[msg\n            .sender][underlyingAsset]\n            .sub(amount);\n\n        //approve\n        IERC20(underlyingAsset).approve(borrowedAsset, amount);\n\n        //liquidate\n        require(\n            ICToken(borrowedAsset).liquidateBorrow(\n                borrower,\n                amount,\n                collateral\n            ) == 0,\n            \"Error in repay\"\n        );\n\n        //transfer seized collateral to liquidator\n        uint256 collateralFinalbalance = IERC20(collateral).balanceOf(\n            address(this)\n        );\n        collateralSeized = collateralFinalbalance.sub(collateralInitialbalance);\n\n        IERC20(collateral).transfer(msg.sender, collateralSeized);\n\n        emit AccountLiquidated(\n            borrower,\n            msg.sender,\n            collateral,\n            collateralSeized\n        );\n    }\n}\n",
  "sourcePath": "/home/deqode/Desktop/work/test-task/perlin-test-task/contracts/LiquidationManager.sol",
  "compiler": {
    "name": "solc",
    "version": "0.5.12+commit.7709ece9.Emscripten.clang"
  },
  "schemaVersion": "3.2.2",
  "updatedAt": "2020-07-21T06:26:21.349Z",
  "devdoc": {
    "methods": {
      "isOwner()": {
        "details": "Returns true if the caller is the current owner."
      },
      "owner()": {
        "details": "Returns the address of the current owner."
      },
      "renounceOwnership()": {
        "details": "Leaves the contract without owner. It will not be possible to call `onlyOwner` functions anymore. Can only be called by the current owner.     * NOTE: Renouncing ownership will leave the contract without an owner, thereby removing any functionality that is only available to the owner."
      },
      "transferOwnership(address)": {
        "details": "Transfers ownership of the contract to a new account (`newOwner`). Can only be called by the current owner."
      }
    }
  },
  "userdoc": {
    "methods": {}
  }
}