{
  "contractName": "LiquidatorManager",
  "abi": [
    {
      "anonymous": false,
      "inputs": [
        {
          "indexed": false,
          "internalType": "address",
          "name": "borrower",
          "type": "address"
        },
        {
          "indexed": false,
          "internalType": "address",
          "name": "liquidator",
          "type": "address"
        },
        {
          "indexed": false,
          "internalType": "address",
          "name": "assetSeized",
          "type": "address"
        },
        {
          "indexed": false,
          "internalType": "uint256",
          "name": "amountSeized",
          "type": "uint256"
        }
      ],
      "name": "AccountLiquidated",
      "type": "event"
    },
    {
      "anonymous": false,
      "inputs": [
        {
          "indexed": false,
          "internalType": "address",
          "name": "token",
          "type": "address"
        },
        {
          "indexed": false,
          "internalType": "uint256",
          "name": "amount",
          "type": "uint256"
        }
      ],
      "name": "AmountDeposited",
      "type": "event"
    },
    {
      "anonymous": false,
      "inputs": [
        {
          "indexed": false,
          "internalType": "address",
          "name": "borrower",
          "type": "address"
        },
        {
          "indexed": false,
          "internalType": "address",
          "name": "payer",
          "type": "address"
        },
        {
          "indexed": false,
          "internalType": "uint256",
          "name": "amount",
          "type": "uint256"
        }
      ],
      "name": "AmountRepaid",
      "type": "event"
    },
    {
      "anonymous": false,
      "inputs": [
        {
          "indexed": false,
          "internalType": "address",
          "name": "token",
          "type": "address"
        },
        {
          "indexed": false,
          "internalType": "uint256",
          "name": "amount",
          "type": "uint256"
        }
      ],
      "name": "AmountWithdrawn",
      "type": "event"
    },
    {
      "anonymous": false,
      "inputs": [
        {
          "indexed": true,
          "internalType": "address",
          "name": "previousOwner",
          "type": "address"
        },
        {
          "indexed": true,
          "internalType": "address",
          "name": "newOwner",
          "type": "address"
        }
      ],
      "name": "OwnershipTransferred",
      "type": "event"
    },
    {
      "constant": true,
      "inputs": [
        {
          "internalType": "address",
          "name": "",
          "type": "address"
        },
        {
          "internalType": "address",
          "name": "",
          "type": "address"
        }
      ],
      "name": "balance",
      "outputs": [
        {
          "internalType": "uint256",
          "name": "",
          "type": "uint256"
        }
      ],
      "payable": false,
      "stateMutability": "view",
      "type": "function"
    },
    {
      "constant": true,
      "inputs": [],
      "name": "comptrollerAddress",
      "outputs": [
        {
          "internalType": "address",
          "name": "",
          "type": "address"
        }
      ],
      "payable": false,
      "stateMutability": "view",
      "type": "function"
    },
    {
      "constant": true,
      "inputs": [],
      "name": "isOwner",
      "outputs": [
        {
          "internalType": "bool",
          "name": "",
          "type": "bool"
        }
      ],
      "payable": false,
      "stateMutability": "view",
      "type": "function"
    },
    {
      "constant": true,
      "inputs": [],
      "name": "owner",
      "outputs": [
        {
          "internalType": "address",
          "name": "",
          "type": "address"
        }
      ],
      "payable": false,
      "stateMutability": "view",
      "type": "function"
    },
    {
      "constant": false,
      "inputs": [],
      "name": "renounceOwnership",
      "outputs": [],
      "payable": false,
      "stateMutability": "nonpayable",
      "type": "function"
    },
    {
      "constant": false,
      "inputs": [
        {
          "internalType": "address",
          "name": "newOwner",
          "type": "address"
        }
      ],
      "name": "transferOwnership",
      "outputs": [],
      "payable": false,
      "stateMutability": "nonpayable",
      "type": "function"
    },
    {
      "constant": false,
      "inputs": [
        {
          "internalType": "address",
          "name": "_comptrollerAddress",
          "type": "address"
        }
      ],
      "name": "updateComptrollerAddress",
      "outputs": [],
      "payable": false,
      "stateMutability": "nonpayable",
      "type": "function"
    },
    {
      "constant": false,
      "inputs": [
        {
          "internalType": "address",
          "name": "token",
          "type": "address"
        },
        {
          "internalType": "uint256",
          "name": "amount",
          "type": "uint256"
        }
      ],
      "name": "deposit",
      "outputs": [],
      "payable": true,
      "stateMutability": "payable",
      "type": "function"
    },
    {
      "constant": false,
      "inputs": [
        {
          "internalType": "address",
          "name": "token",
          "type": "address"
        },
        {
          "internalType": "uint256",
          "name": "amount",
          "type": "uint256"
        }
      ],
      "name": "withdraw",
      "outputs": [],
      "payable": false,
      "stateMutability": "nonpayable",
      "type": "function"
    },
    {
      "constant": false,
      "inputs": [
        {
          "internalType": "address",
          "name": "token",
          "type": "address"
        },
        {
          "internalType": "address",
          "name": "cToken",
          "type": "address"
        },
        {
          "internalType": "uint256",
          "name": "amount",
          "type": "uint256"
        }
      ],
      "name": "withdrawCTokens",
      "outputs": [
        {
          "internalType": "uint256",
          "name": "tokensMinted",
          "type": "uint256"
        }
      ],
      "payable": false,
      "stateMutability": "nonpayable",
      "type": "function"
    },
    {
      "constant": true,
      "inputs": [],
      "name": "isLiquidityNegative",
      "outputs": [
        {
          "internalType": "bool",
          "name": "",
          "type": "bool"
        }
      ],
      "payable": false,
      "stateMutability": "view",
      "type": "function"
    },
    {
      "constant": false,
      "inputs": [
        {
          "internalType": "address",
          "name": "borrower",
          "type": "address"
        },
        {
          "internalType": "address",
          "name": "cToken",
          "type": "address"
        },
        {
          "internalType": "uint256",
          "name": "repayAmount",
          "type": "uint256"
        }
      ],
      "name": "repayBorrowedAsset",
      "outputs": [],
      "payable": false,
      "stateMutability": "nonpayable",
      "type": "function"
    },
    {
      "constant": false,
      "inputs": [
        {
          "internalType": "address",
          "name": "borrower",
          "type": "address"
        },
        {
          "internalType": "address",
          "name": "collateral",
          "type": "address"
        },
        {
          "internalType": "address",
          "name": "borrowedAsset",
          "type": "address"
        },
        {
          "internalType": "uint256",
          "name": "amount",
          "type": "uint256"
        }
      ],
      "name": "liquidate",
      "outputs": [
        {
          "internalType": "uint256",
          "name": "collateralSeized",
          "type": "uint256"
        }
      ],
      "payable": false,
      "stateMutability": "nonpayable",
      "type": "function"
    }
  ],
  "bytecode": "0x6080604052600180546001600160a01b031916733d9819210a31b4961b30ef54be2aed79b9c9cd3b179055600061003d6001600160e01b0361008c16565b600080546001600160a01b0319166001600160a01b0383169081178255604051929350917f8be0079c531659141344cd1fd0a4f28419497f9722a3daafe3b4186f6b6457e0908290a350610090565b3390565b611e3b8061009f6000396000f3fe6080604052600436106100d25760003560e01c80638f32d59b1161007f578063b60c29ff11610059578063b60c29ff14610295578063e71d5a94146102aa578063f2fde38b146102ed578063f3fef3a314610320576100d2565b80638f32d59b146101d6578063aab3f868146101ff578063b203bb991461025a576100d2565b8063715018a6116100b0578063715018a61461017957806380efbaa71461018e5780638da5cb5b146101c1576100d2565b806344267f22146100d757806347e7ef241461011c57806368bde41f14610148575b600080fd5b3480156100e357600080fd5b5061011a600480360360608110156100fa57600080fd5b506001600160a01b03813581169160208101359091169060400135610359565b005b61011a6004803603604081101561013257600080fd5b506001600160a01b038135169060200135610501565b34801561015457600080fd5b5061015d610812565b604080516001600160a01b039092168252519081900360200190f35b34801561018557600080fd5b5061011a610821565b34801561019a57600080fd5b5061011a600480360360208110156101b157600080fd5b50356001600160a01b03166108c4565b3480156101cd57600080fd5b5061015d61099a565b3480156101e257600080fd5b506101eb6109aa565b604080519115158252519081900360200190f35b34801561020b57600080fd5b506102486004803603608081101561022257600080fd5b506001600160a01b038135811691602081013582169160408201351690606001356109ce565b60408051918252519081900360200190f35b34801561026657600080fd5b506102486004803603604081101561027d57600080fd5b506001600160a01b0381358116916020013516610c1e565b3480156102a157600080fd5b506101eb610c3b565b3480156102b657600080fd5b50610248600480360360608110156102cd57600080fd5b506001600160a01b03813581169160208101359091169060400135610cd4565b3480156102f957600080fd5b5061011a6004803603602081101561031057600080fd5b50356001600160a01b03166111d4565b34801561032c57600080fd5b5061011a6004803603604081101561034357600080fd5b506001600160a01b038135169060200135611239565b6000826001600160a01b0316636f307dc36040518163ffffffff1660e01b815260040160206040518083038186803b15801561039457600080fd5b505afa1580156103a8573d6000803e3d6000fd5b505050506040513d60208110156103be57600080fd5b50513360009081526002602090815260408083206001600160a01b0385168452909152902054909150821115610432576040805162461bcd60e51b8152602060048201526014602482015273125b9cdd59999a58da595b9d0819195c1bdcda5d60621b604482015290519081900360640190fd5b3360009081526002602090815260408083206001600160a01b0385168452909152902054610466908363ffffffff6114be16565b3360008181526002602090815260408083206001600160a01b03878116855292529091209290925590851614156104a7576104a2818484611507565b6104b3565b6104b3818585856116ce565b604080516001600160a01b038616815233602082015280820184905290517f4e194c226dfbd80d8740c9fbb9d245b20c6ee6b0601577053779ce7978b541349181900360600190a150505050565b6001600160a01b038216610554576040805162461bcd60e51b8152602060048201526015602482015274496e76616c696420546f6b656e206164647265737360581b604482015290519081900360640190fd5b600081116105a0576040805162461bcd60e51b8152602060048201526014602482015273125b9d985b1a59081d1bdad95b88185b5bdd5b9d60621b604482015290519081900360640190fd5b6001600160a01b03821673eeeeeeeeeeeeeeeeeeeeeeeeeeeeeeeeeeeeeeee141561062757803414610619576040805162461bcd60e51b815260206004820152601460248201527f496e636f72726563742045544820616d6f756e74000000000000000000000000604482015290519081900360640190fd5b610622346118bd565b61080e565b60408051636eb1769f60e11b815233600482015230602482015290516000916001600160a01b0385169163dd62ed3e91604480820192602092909190829003018186803b15801561067757600080fd5b505afa15801561068b573d6000803e3d6000fd5b505050506040513d60208110156106a157600080fd5b50519050818110156106fa576040805162461bcd60e51b815260206004820152601360248201527f546f6b656e73206e6f7420617070726f76656400000000000000000000000000604482015290519081900360640190fd5b3360009081526002602090815260408083206001600160a01b038716845290915290205461072e908363ffffffff61196b16565b3360008181526002602090815260408083206001600160a01b0389168085529083528184209590955580516323b872dd60e01b8152600481019490945230602485015260448401879052516323b872dd93606480820194918390030190829087803b15801561079c57600080fd5b505af11580156107b0573d6000803e3d6000fd5b505050506040513d60208110156107c657600080fd5b5050604080516001600160a01b03851681526020810184905281517faf31a4a3892de0f8039a2ac1ec5c05b946eaea69190ca344c5e239479b3995c9929181900390910190a1505b5050565b6001546001600160a01b031681565b6108296109aa565b61087a576040805162461bcd60e51b815260206004820181905260248201527f4f776e61626c653a2063616c6c6572206973206e6f7420746865206f776e6572604482015290519081900360640190fd5b600080546040516001600160a01b03909116907f8be0079c531659141344cd1fd0a4f28419497f9722a3daafe3b4186f6b6457e0908390a3600080546001600160a01b0319169055565b6108cc6109aa565b61091d576040805162461bcd60e51b815260206004820181905260248201527f4f776e61626c653a2063616c6c6572206973206e6f7420746865206f776e6572604482015290519081900360640190fd5b6001600160a01b038116610978576040805162461bcd60e51b815260206004820152601b60248201527f496e76616c696420636f6d7074726f6c6c657220616464726573730000000000604482015290519081900360640190fd5b600180546001600160a01b0319166001600160a01b0392909216919091179055565b6000546001600160a01b03165b90565b600080546001600160a01b03166109bf6119c5565b6001600160a01b031614905090565b600080836001600160a01b0316636f307dc36040518163ffffffff1660e01b815260040160206040518083038186803b158015610a0a57600080fd5b505afa158015610a1e573d6000803e3d6000fd5b505050506040513d6020811015610a3457600080fd5b50513360009081526002602090815260408083206001600160a01b0385168452909152902054909150831115610aa8576040805162461bcd60e51b8152602060048201526014602482015273125b9cdd59999a58da595b9d0819195c1bdcda5d60621b604482015290519081900360640190fd5b604080516370a0823160e01b815230600482015290516000916001600160a01b038816916370a0823191602480820192602092909190829003018186803b158015610af257600080fd5b505afa158015610b06573d6000803e3d6000fd5b505050506040513d6020811015610b1c57600080fd5b50513360009081526002602090815260408083206001600160a01b0387168452909152902054909150610b55908563ffffffff6114be16565b3360009081526002602090815260408083206001600160a01b03871680855292529091209190915573eeeeeeeeeeeeeeeeeeeeeeeeeeeeeeeeeeeeeeee1415610ba957610ba4858888876119c9565b610bb6565b610bb68583898988611a3c565b610bc08682611b99565b604080516001600160a01b03808b1682523360208301528916818301526060810183905290519194507fc1a5f4f837246892a5cff1b2da4b9e2ea64e4c20efa9bf0e64e823c02eb714c6919081900360800190a15050949350505050565b600260209081526000928352604080842090915290825290205481565b60015460408051635ec88c7960e01b8152336004820152905160009283926001600160a01b0390911691635ec88c7991602480820192606092909190829003018186803b158015610c8b57600080fd5b505afa158015610c9f573d6000803e3d6000fd5b505050506040513d6060811015610cb557600080fd5b506040015190508015610ccc5760019150506109a7565b600091505090565b60006001600160a01b038416610d29576040805162461bcd60e51b8152602060048201526015602482015274496e76616c696420546f6b656e206164647265737360581b604482015290519081900360640190fd5b60008211610d75576040805162461bcd60e51b8152602060048201526014602482015273125b9d985b1a59081d1bdad95b88185b5bdd5b9d60621b604482015290519081900360640190fd5b3360009081526002602090815260408083206001600160a01b0388168452909152902054821115610ded576040805162461bcd60e51b815260206004820152601960248201527f496e76616c6964207769746864726177616c20616d6f756e7400000000000000604482015290519081900360640190fd5b3360009081526002602090815260408083206001600160a01b0388168452909152902054610e21908363ffffffff6114be16565b3360009081526002602090815260408083206001600160a01b0389811685529083528184209490945580516370a0823160e01b8152306004820152905192938716926370a0823192602480840193919291829003018186803b158015610e8657600080fd5b505afa158015610e9a573d6000803e3d6000fd5b505050506040513d6020811015610eb057600080fd5b505190506001600160a01b03851673eeeeeeeeeeeeeeeeeeeeeeeeeeeeeeeeeeeeeeee1415610f3257836001600160a01b0316631249c58b846040518263ffffffff1660e01b81526004016000604051808303818588803b158015610f1457600080fd5b505af1158015610f28573d6000803e3d6000fd5b5050505050611085565b846001600160a01b031663095ea7b385856040518363ffffffff1660e01b815260040180836001600160a01b03166001600160a01b0316815260200182815260200192505050602060405180830381600087803b158015610f9257600080fd5b505af1158015610fa6573d6000803e3d6000fd5b505050506040513d6020811015610fbc57600080fd5b50506040805163140e25ad60e31b81526004810185905290516001600160a01b0386169163a0712d689160248083019260209291908290030181600087803b15801561100757600080fd5b505af115801561101b573d6000803e3d6000fd5b505050506040513d602081101561103157600080fd5b505115611085576040805162461bcd60e51b815260206004820152601960248201527f4572726f7220696e2072656465656d696e6720746f6b656e7300000000000000604482015290519081900360640190fd5b604080516370a0823160e01b815230600482015290516111099183916001600160a01b038816916370a08231916024808301926020929190829003018186803b1580156110d157600080fd5b505afa1580156110e5573d6000803e3d6000fd5b505050506040513d60208110156110fb57600080fd5b50519063ffffffff6114be16565b6040805163a9059cbb60e01b81523360048201526024810183905290519193506001600160a01b0386169163a9059cbb916044808201926020929091908290030181600087803b15801561115c57600080fd5b505af1158015611170573d6000803e3d6000fd5b505050506040513d602081101561118657600080fd5b5050604080516001600160a01b03861681526020810185905281517f058b581e2433b8b02263f5b0e5c2889fcb7b3495112884a3147619038fba46d8929181900390910190a1509392505050565b6111dc6109aa565b61122d576040805162461bcd60e51b815260206004820181905260248201527f4f776e61626c653a2063616c6c6572206973206e6f7420746865206f776e6572604482015290519081900360640190fd5b61123681611ca9565b50565b6001600160a01b03821661128c576040805162461bcd60e51b8152602060048201526015602482015274496e76616c696420546f6b656e206164647265737360581b604482015290519081900360640190fd5b600081116112d8576040805162461bcd60e51b8152602060048201526014602482015273125b9d985b1a59081d1bdad95b88185b5bdd5b9d60621b604482015290519081900360640190fd5b3360009081526002602090815260408083206001600160a01b0386168452909152902054811115611350576040805162461bcd60e51b815260206004820152601960248201527f496e76616c6964207769746864726177616c20616d6f756e7400000000000000604482015290519081900360640190fd5b3360009081526002602090815260408083206001600160a01b0386168452909152902054611384908263ffffffff6114be16565b3360009081526002602090815260408083206001600160a01b03871680855292529091209190915573eeeeeeeeeeeeeeeeeeeeeeeeeeeeeeeeeeeeeeee14156113fa57604051339082156108fc029083906000818181858888f193505050501580156113f4573d6000803e3d6000fd5b50611476565b6040805163a9059cbb60e01b81523360048201526024810183905290516001600160a01b0384169163a9059cbb9160448083019260209291908290030181600087803b15801561144957600080fd5b505af115801561145d573d6000803e3d6000fd5b505050506040513d602081101561147357600080fd5b50505b604080516001600160a01b03841681526020810183905281517f058b581e2433b8b02263f5b0e5c2889fcb7b3495112884a3147619038fba46d8929181900390910190a15050565b600061150083836040518060400160405280601e81526020017f536166654d6174683a207375627472616374696f6e206f766572666c6f770000815250611d49565b9392505050565b6001600160a01b03831673eeeeeeeeeeeeeeeeeeeeeeeeeeeeeeeeeeeeeeee141561158557816001600160a01b0316634e4d9fea826040518263ffffffff1660e01b81526004016000604051808303818588803b15801561156757600080fd5b505af115801561157b573d6000803e3d6000fd5b50505050506116c9565b826001600160a01b031663095ea7b383836040518363ffffffff1660e01b815260040180836001600160a01b03166001600160a01b0316815260200182815260200192505050602060405180830381600087803b1580156115e557600080fd5b505af11580156115f9573d6000803e3d6000fd5b505050506040513d602081101561160f57600080fd5b50506040805163073a938160e11b81526004810183905290516001600160a01b03841691630e7527029160248083019260209291908290030181600087803b15801561165a57600080fd5b505af115801561166e573d6000803e3d6000fd5b505050506040513d602081101561168457600080fd5b5051156116c9576040805162461bcd60e51b815260206004820152600e60248201526d4572726f7220696e20726570617960901b604482015290519081900360640190fd5b505050565b6001600160a01b03841673eeeeeeeeeeeeeeeeeeeeeeeeeeeeeeeeeeeeeeee141561176957816001600160a01b031663e597461982856040518363ffffffff1660e01b815260040180826001600160a01b03166001600160a01b031681526020019150506000604051808303818588803b15801561174b57600080fd5b505af115801561175f573d6000803e3d6000fd5b50505050506118b7565b836001600160a01b031663095ea7b383836040518363ffffffff1660e01b815260040180836001600160a01b03166001600160a01b0316815260200182815260200192505050602060405180830381600087803b1580156117c957600080fd5b505af11580156117dd573d6000803e3d6000fd5b505050506040513d60208110156117f357600080fd5b5050604080516304c11f0360e31b81526001600160a01b03858116600483015260248201849052915191841691632608f818916044808201926020929091908290030181600087803b15801561184857600080fd5b505af115801561185c573d6000803e3d6000fd5b505050506040513d602081101561187257600080fd5b5051156118b7576040805162461bcd60e51b815260206004820152600e60248201526d4572726f7220696e20726570617960901b604482015290519081900360640190fd5b50505050565b33600090815260026020908152604080832073eeeeeeeeeeeeeeeeeeeeeeeeeeeeeeeeeeeeeeee84529091529020546118fc908263ffffffff61196b16565b33600090815260026020908152604080832073eeeeeeeeeeeeeeeeeeeeeeeeeeeeeeeeeeeeeeee80855290835292819020939093558251918252810183905281517faf31a4a3892de0f8039a2ac1ec5c05b946eaea69190ca344c5e239479b3995c9929181900390910190a150565b600082820183811015611500576040805162461bcd60e51b815260206004820152601b60248201527f536166654d6174683a206164646974696f6e206f766572666c6f770000000000604482015290519081900360640190fd5b3390565b60408051635572051560e11b81526001600160a01b038581166004830152848116602483015291519186169163aae40a2a918491604480830192600092919082900301818588803b158015611a1d57600080fd5b505af1158015611a31573d6000803e3d6000fd5b505050505050505050565b836001600160a01b031663095ea7b386836040518363ffffffff1660e01b815260040180836001600160a01b03166001600160a01b0316815260200182815260200192505050602060405180830381600087803b158015611a9c57600080fd5b505af1158015611ab0573d6000803e3d6000fd5b505050506040513d6020811015611ac657600080fd5b505060408051637af1e23160e11b81526001600160a01b03858116600483015260248201849052848116604483015291519187169163f5e3c462916064808201926020929091908290030181600087803b158015611b2357600080fd5b505af1158015611b37573d6000803e3d6000fd5b505050506040513d6020811015611b4d57600080fd5b505115611b92576040805162461bcd60e51b815260206004820152600e60248201526d4572726f7220696e20726570617960901b604482015290519081900360640190fd5b5050505050565b604080516370a0823160e01b8152306004820152905160009182916001600160a01b038616916370a08231916024808301926020929190829003018186803b158015611be457600080fd5b505afa158015611bf8573d6000803e3d6000fd5b505050506040513d6020811015611c0e57600080fd5b50519050611c22818463ffffffff6114be16565b6040805163a9059cbb60e01b81523360048201526024810183905290519193506001600160a01b0386169163a9059cbb916044808201926020929091908290030181600087803b158015611c7557600080fd5b505af1158015611c89573d6000803e3d6000fd5b505050506040513d6020811015611c9f57600080fd5b5091949350505050565b6001600160a01b038116611cee5760405162461bcd60e51b8152600401808060200182810382526026815260200180611de16026913960400191505060405180910390fd5b600080546040516001600160a01b03808516939216917f8be0079c531659141344cd1fd0a4f28419497f9722a3daafe3b4186f6b6457e091a3600080546001600160a01b0319166001600160a01b0392909216919091179055565b60008184841115611dd85760405162461bcd60e51b81526004018080602001828103825283818151815260200191508051906020019080838360005b83811015611d9d578181015183820152602001611d85565b50505050905090810190601f168015611dca5780820380516001836020036101000a031916815260200191505b509250505060405180910390fd5b50505090039056fe4f776e61626c653a206e6577206f776e657220697320746865207a65726f2061646472657373a265627a7a7231582057cfd1d8a6e266eba011967acb2998468323fac94e47c9a867500cbe57cdfbb564736f6c634300050c0032",
  "source": "pragma solidity 0.5.12;\n\nimport \"@openzeppelin/contracts/utils/Address.sol\";\nimport \"@openzeppelin/contracts/ownership/Ownable.sol\";\nimport \"@openzeppelin/contracts/token/ERC20/IERC20.sol\";\n\nimport \"@openzeppelin/contracts/math/SafeMath.sol\";\nimport \"@openzeppelin/contracts/token/ERC20/SafeERC20.sol\";\n\nimport \"./interfaces/IComptroller.sol\";\nimport \"./interfaces/ICToken.sol\";\nimport \"./interfaces/ICEther.sol\";\n\ncontract LiquidatorManager is Ownable {\n    using SafeERC20 for IERC20;\n    using SafeMath for uint256;\n\n    address public comptrollerAddress = address(\n        0x3d9819210A31b4961b30EF54bE2aeD79B9c9Cd3B\n    );\n\n    address private constant ETHAddress = address(\n        0xEeeeeEeeeEeEeeEeEeEeeEEEeeeeEeeeeeeeEEeE\n    );\n\n    mapping(address => mapping(address => uint256)) public balance;\n\n    event AmountDeposited(address token, uint256 amount);\n    event AmountWithdrawn(address token, uint256 amount);\n    event AccountLiquidated(\n        address borrower,\n        address liquidator,\n        address assetSeized,\n        uint256 amountSeized\n    );\n    event AmountRepaid(address borrower, address payer, uint256 amount);\n\n    function updateComptrollerAddress(address _comptrollerAddress)\n        public\n        onlyOwner\n    {\n        require(\n            _comptrollerAddress != address(0),\n            \"Invalid comptroller address\"\n        );\n        comptrollerAddress = _comptrollerAddress;\n    }\n\n    function deposit(address token, uint256 amount) public payable {\n        require(token != address(0), \"Invalid Token address\");\n        require(amount > 0, \"Invalid token amount\");\n\n        if (token == ETHAddress) {\n            require(msg.value == amount, \"Incorrect ETH amount\");\n            return _depositETH(msg.value);\n        }\n\n        uint256 allowance = IERC20(token).allowance(msg.sender, address(this));\n        require(allowance >= amount, \"Tokens not approved\");\n\n        balance[msg.sender][token] = (balance[msg.sender][token]).add(amount);\n\n        IERC20(token).transferFrom(msg.sender, address(this), amount);\n\n        emit AmountDeposited(token, amount);\n    }\n\n    function _depositETH(uint256 amount) internal {\n        balance[msg.sender][ETHAddress] = balance[msg.sender][ETHAddress].add(\n            amount\n        );\n        emit AmountDeposited(ETHAddress, amount);\n    }\n\n    function withdraw(address token, uint256 amount) public {\n        require(token != address(0), \"Invalid Token address\");\n        require(amount > 0, \"Invalid token amount\");\n\n        require(\n            balance[msg.sender][token] >= amount,\n            \"Invalid withdrawal amount\"\n        );\n\n        balance[msg.sender][token] = balance[msg.sender][token].sub(amount);\n\n        if (token == ETHAddress) {\n            msg.sender.transfer(amount);\n        } else {\n            IERC20(token).transfer(msg.sender, amount);\n        }\n\n        emit AmountWithdrawn(token, amount);\n    }\n\n    function withdrawCTokens(\n        address token,\n        address cToken,\n        uint256 amount\n    ) public returns (uint256 tokensMinted) {\n        require(token != address(0), \"Invalid Token address\");\n        require(amount > 0, \"Invalid token amount\");\n\n        require(\n            balance[msg.sender][token] >= amount,\n            \"Invalid withdrawal amount\"\n        );\n        balance[msg.sender][token] = balance[msg.sender][token].sub(amount);\n\n        uint256 initialCTokenBalance = IERC20(cToken).balanceOf(address(this));\n\n        //mint cToken\n        if (token == ETHAddress) {\n            ICEther(cToken).mint.value(amount)();\n        } else {\n            //approve\n            IERC20(token).approve(cToken, amount);\n            require(\n                ICToken(cToken).mint(amount) == 0,\n                \"Error in redeeming tokens\"\n            );\n        }\n\n        tokensMinted = IERC20(cToken).balanceOf(address(this)).sub(\n            initialCTokenBalance\n        );\n\n        IERC20(cToken).transfer(msg.sender, tokensMinted);\n\n        emit AmountWithdrawn(cToken, amount);\n    }\n\n    function isLiquidityNegative() public view returns (bool) {\n        (, , uint256 shortfall) = IComptroller(comptrollerAddress)\n            .getAccountLiquidity(msg.sender);\n        if (shortfall > 0) return true;\n\n        return false;\n    }\n\n    //amount in underlying asset terms\n    function repayBorrowedAsset(\n        address borrower,\n        address cToken,\n        uint256 repayAmount\n    ) public {\n        address underlyingToken = ICToken(cToken).underlying();\n        require(\n            balance[msg.sender][underlyingToken] >= repayAmount,\n            \"Insufficient deposit\"\n        );\n\n        balance[msg.sender][underlyingToken] = balance[msg\n            .sender][underlyingToken]\n            .sub(repayAmount);\n\n        //repay\n        if (borrower == msg.sender) {\n            _repayBorrow(underlyingToken, cToken, repayAmount);\n        } else {\n            _repayBorrowBehalf(underlyingToken, borrower, cToken, repayAmount);\n        }\n\n        emit AmountRepaid(borrower, msg.sender, repayAmount);\n    }\n\n    function _repayBorrow(\n        address underlyingToken,\n        address cToken,\n        uint256 repayAmount\n    ) internal {\n        if (underlyingToken == ETHAddress) {\n            ICEther(cToken).repayBorrow.value(repayAmount)();\n        } else {\n            //approve\n            IERC20(underlyingToken).approve(cToken, repayAmount);\n            require(\n                ICToken(cToken).repayBorrow(repayAmount) == 0,\n                \"Error in repay\"\n            );\n        }\n    }\n\n    function _repayBorrowBehalf(\n        address underlyingToken,\n        address borrower,\n        address cToken,\n        uint256 repayAmount\n    ) internal {\n        if (underlyingToken == ETHAddress) {\n            ICEther(cToken).repayBorrowBehalf.value(repayAmount)(borrower);\n        } else {\n            //approve\n            IERC20(underlyingToken).approve(cToken, repayAmount);\n            require(\n                ICToken(cToken).repayBorrowBehalf(borrower, repayAmount) == 0,\n                \"Error in repay\"\n            );\n        }\n    }\n\n    function liquidate(\n        address borrower,\n        address collateral,\n        address borrowedAsset,\n        uint256 amount\n    ) public returns (uint256 collateralSeized) {\n        address underlyingAsset = ICToken(borrowedAsset).underlying();\n        require(\n            balance[msg.sender][underlyingAsset] >= amount,\n            \"Insufficient deposit\"\n        );\n\n        uint256 collateralInitialbalance = IERC20(collateral).balanceOf(\n            address(this)\n        );\n        balance[msg.sender][underlyingAsset] = balance[msg\n            .sender][underlyingAsset]\n            .sub(amount);\n\n        //liquidate\n        if (underlyingAsset == ETHAddress) {\n            _liquidateETH(borrowedAsset, borrower, collateral, amount);\n        } else {\n            _liquidateERC(\n                borrowedAsset,\n                underlyingAsset,\n                borrower,\n                collateral,\n                amount\n            );\n        }\n\n        //transfer seized collateral to liquidator\n        collateralSeized = _transferSeizedCollateral(\n            collateral,\n            collateralInitialbalance\n        );\n\n        emit AccountLiquidated(\n            borrower,\n            msg.sender,\n            collateral,\n            collateralSeized\n        );\n    }\n\n    function _liquidateETH(\n        address borrowedAsset,\n        address borrower,\n        address collateral,\n        uint256 amount\n    ) internal {\n        //liquidate\n        ICEther(borrowedAsset).liquidateBorrow.value(amount)(\n            borrower,\n            collateral\n        );\n    }\n\n    function _liquidateERC(\n        address borrowedAsset,\n        address underlyingAsset,\n        address borrower,\n        address collateral,\n        uint256 amount\n    ) internal {\n        //approve\n        IERC20(underlyingAsset).approve(borrowedAsset, amount);\n\n        //liquidate\n        require(\n            ICToken(borrowedAsset).liquidateBorrow(\n                borrower,\n                amount,\n                collateral\n            ) == 0,\n            \"Error in repay\"\n        );\n    }\n\n    function _transferSeizedCollateral(\n        address collateral,\n        uint256 collateralInitialbalance\n    ) internal returns (uint256 collateralSeized) {\n        uint256 collateralFinalbalance = IERC20(collateral).balanceOf(\n            address(this)\n        );\n        collateralSeized = collateralFinalbalance.sub(collateralInitialbalance);\n\n        IERC20(collateral).transfer(msg.sender, collateralSeized);\n    }\n}\n",
  "sourcePath": "/home/deqode/Desktop/work/test-task/perlin-test-task/contracts/LiquidatorManager.sol",
  "compiler": {
    "name": "solc",
    "version": "0.5.12+commit.7709ece9.Emscripten.clang"
  },
  "schemaVersion": "3.2.2",
  "updatedAt": "2020-07-23T11:49:59.663Z",
  "devdoc": {
    "methods": {
      "isOwner()": {
        "details": "Returns true if the caller is the current owner."
      },
      "owner()": {
        "details": "Returns the address of the current owner."
      },
      "renounceOwnership()": {
        "details": "Leaves the contract without owner. It will not be possible to call `onlyOwner` functions anymore. Can only be called by the current owner.     * NOTE: Renouncing ownership will leave the contract without an owner, thereby removing any functionality that is only available to the owner."
      },
      "transferOwnership(address)": {
        "details": "Transfers ownership of the contract to a new account (`newOwner`). Can only be called by the current owner."
      }
    }
  },
  "userdoc": {
    "methods": {}
  }
}