{
  "contractName": "Swap",
  "abi": [
    {
      "constant": true,
      "inputs": [],
      "name": "UniSwapFactoryAddress",
      "outputs": [
        {
          "internalType": "contract IuniswapFactory",
          "name": "",
          "type": "address"
        }
      ],
      "payable": false,
      "stateMutability": "view",
      "type": "function"
    },
    {
      "constant": false,
      "inputs": [
        {
          "internalType": "address",
          "name": "_ToTokenContractAddress",
          "type": "address"
        }
      ],
      "name": "ethToToken",
      "outputs": [],
      "payable": true,
      "stateMutability": "payable",
      "type": "function"
    }
  ],
  "bytecode": "0x6080604052600080546001600160a01b03191673c0a47dfe034b400b47bdad5fecda2621de6c4d9517905534801561003657600080fd5b5061022e806100466000396000f3fe6080604052600436106100295760003560e01c8063525d509e1461002e5780637b8dd3de1461005f575b600080fd5b34801561003a57600080fd5b50610043610087565b604080516001600160a01b039092168252519081900360200190f35b6100856004803603602081101561007557600080fd5b50356001600160a01b0316610096565b005b6000546001600160a01b031681565b6001600160a01b0381166100f1576040805162461bcd60e51b815260206004820152601560248201527f496e76616c696420746f6b656e20616464726573730000000000000000000000604482015290519081900360640190fd5b60008054604080516303795fb160e11b81526001600160a01b038581166004830152915191909216916306f2bf62916024808301926020929190829003018186803b15801561013f57600080fd5b505afa158015610153573d6000803e3d6000fd5b505050506040513d602081101561016957600080fd5b50516040805163ad65d76d60e01b8152600160048201526107084201602482015233604482015290519192506001600160a01b0383169163ad65d76d913491606480830192602092919082900301818588803b1580156101c857600080fd5b505af11580156101dc573d6000803e3d6000fd5b50505050506040513d60208110156101f357600080fd5b5050505056fea265627a7a72315820b020b27bb285a20801277fb40e9199c12488758a418e069d57aea01408fe4e5364736f6c634300050c0032",
  "source": "pragma solidity 0.5.12;\n\ninterface IuniswapFactory {\n    function getExchange(address token)\n        external\n        view\n        returns (address exchange);\n}\n\ninterface IuniswapExchange {\n    function ethToTokenSwapInput(uint256 min_tokens, uint256 deadline)\n        external\n        payable\n        returns (uint256 tokens_bought);\n\n    function ethToTokenTransferInput(\n        uint256 min_tokens,\n        uint256 deadline,\n        address recipient\n    ) external payable returns (uint256 tokens_bought);\n}\n\ncontract Swap {\n    IuniswapFactory public UniSwapFactoryAddress = IuniswapFactory(\n        0xc0a47dFe034B400B47bDaD5FecDa2621de6c4d95\n    );\n\n    function ethToToken(address _ToTokenContractAddress) external payable {\n\t\t\t\trequire(_ToTokenContractAddress != address(0), \"Invalid token address\");\n        IuniswapExchange uniswapExchange = IuniswapExchange(\n            UniSwapFactoryAddress.getExchange(_ToTokenContractAddress)\n        );\n        uniswapExchange.ethToTokenTransferInput.value(msg.value)(\n            1,\n            now + 1800,\n            msg.sender\n        );\n    }\n}\n",
  "sourcePath": "/home/deqode/Desktop/work/test-task/perlin-test-task/contracts/mocks/Swap.sol",
  "compiler": {
    "name": "solc",
    "version": "0.5.12+commit.7709ece9.Emscripten.clang"
  },
  "schemaVersion": "3.2.2",
  "updatedAt": "2020-07-23T11:49:59.675Z",
  "devdoc": {
    "methods": {}
  },
  "userdoc": {
    "methods": {}
  }
}